{
  "contractName": "Ownable",
  "abi": [
    {
      "inputs": [],
      "stateMutability": "nonpayable",
      "type": "constructor"
    },
    {
      "inputs": [],
      "name": "isOwner",
      "outputs": [
        {
          "internalType": "bool",
          "name": "",
          "type": "bool"
        }
      ],
      "stateMutability": "view",
      "type": "function"
    }
  ],
  "bytecode": "0x6080604052348015600f57600080fd5b50336000806101000a81548173ffffffffffffffffffffffffffffffffffffffff021916908373ffffffffffffffffffffffffffffffffffffffff16021790555060d88061005e6000396000f3fe6080604052348015600f57600080fd5b506004361060285760003560e01c80638f32d59b14602d575b600080fd5b6033604b565b60405180821515815260200191505060405180910390f35b60008060009054906101000a900473ffffffffffffffffffffffffffffffffffffffff1673ffffffffffffffffffffffffffffffffffffffff163373ffffffffffffffffffffffffffffffffffffffff161490509056fea26469706673582212205383194fe22eef556383284d498af71d2fb3b0e0fc03b35704cbbb1d090e722164736f6c634300060c0033",
  "immutableReferences": {},
  "source": "pragma solidity ^0.6.0;\n\ncontract Ownable {\n    address payable _owner;\n    \n    constructor() public {\n        _owner = msg.sender;\n    }\n    \n    modifier onlyOwner() {\n        require(isOwner(), \"Only owner can access the property or feature\");\n        _;\n    }\n    \n    function isOwner() public view returns(bool) {\n        return msg.sender == _owner;\n    }\n}",
  "sourcePath": "/Users/martinchin/Desktop/Ethereum/Code/truffle_trial/contracts/Ownable.sol",
  "compiler": {
    "name": "solc",
    "version": "0.6.12+commit.27d51765.Emscripten.clang"
  },
  "schemaVersion": "3.2.5",
  "updatedAt": "2020-09-28T19:16:54.996Z",
  "devdoc": {
    "kind": "dev",
    "methods": {},
    "version": 1
  },
  "userdoc": {
    "kind": "user",
    "methods": {},
    "version": 1
  }
}